:020000040000FA
:1000000005100130860085149120851091200A2862
:040010000034003484
:0C00140007309F0003138316860185014E
:10002000831285100510051001308600851491207B
:10003000851091200C308600851491208510912028
:100040003C30860085149120851091200510912068
:10005000823086008C2005149120413086008C204F
:100060004E3086008C20473086008C20453086003C
:100070008C204C3086008C20203086008C2047302D
:1000800086008C204F3086008C204E3086008C20DD
:100090005A3086008C20413086008C204C308600FF
:1000A0008C204F3086008C2005109120C0308600B7
:1000B0008C2005149120443086008C204530860029
:1000C0008C204C3086008C20413086008C202030E3
:1000D00086008C20433086008C20523086008C2095
:1000E000553086008C205A3086008C2020308600C7
:1000F0008C20433086008C20413086008C20533089
:1001000086008C20543086008C20523086008C2053
:100110004F3086008C202628851491208510912050
:100120000800A0010A30A1005030A000A00B9628C2
:06013000A10B9428080059
:02400E00393F38
:00000001FF
